:100000000C9434000C943E000C943E000C943E0082
:100010000C943E000C943E000C943E000C943E0068
:100020000C943E000C943E000C943E000C943E0058
:100030000C943E000C943E000C943E000C943E0048
:100040000C943E000C943E000C943E000C943E0038
:100050000C943E000C943E000C943E000C943E0028
:100060000C943E000C943E0011241FBECFEFD4E050
:10007000DEBFCDBF0E944D000C94C6000C94000062
:100080009C01229FC001239F900D900D112464E6D6
:1000900070E00E949E00CB01089582E084B9C0E028
:1000A000D0E0C536D1051CF5CE010E94400025B137
:1000B000226025B920E030E0281739073CF441E2FE
:1000C0004A95F1F700002F5F3F4FF6CF25B12D7F06
:1000D00025B924E630E0821793073CF441E24A95C3
:1000E000F1F7000021503109F6CF2196DACFC4E6AE
:1000F000D0E0DD23A4F2CE010E94400025B12260B1
:1001000025B920E030E0281739073CF441E24A9550
:10011000F1F700002F5F3F4FF6CF25B12D7F25B9B6
:1001200024E630E0821793073CF441E24A95F1F768
:10013000000021503109F6CF2197DBCF97FB072E26
:1001400016F4009407D077FD09D00E94B20007FC96
:1001500005D03EF4909581959F4F089570956195D7
:100160007F4F0895AA1BBB1B51E107C0AA1FBB1FED
:10017000A617B70710F0A61BB70B881F991F5A9533
:10018000A9F780959095BC01CD010895F894FFCF13
:00000001FF
