:100000000C9434000C943E000C943E000C943E0082
:100010000C943E000C943E000C943E000C943E0068
:100020000C943E000C943E000C943E000C943E0058
:100030000C943E000C943E000C943E000C943E0048
:100040000C943E000C943E000C943E000C943E0038
:100050000C943E000C943E000C943E000C943E0028
:100060000C943E000C943E0011241FBECFEFD4E050
:10007000DEBFCDBF0E9459000C9480000C9400009C
:100080009FEF94B98AB18E7F8AB981E08BB995B917
:10009000089548990AC081EE94E00197F1F700C0F5
:1000A0000000489904C081E0089580E0089580E050
:1000B00008950E944000C1E00E9449008823E1F3B6
:1000C000C1110EC085B18D7F85B92FE986E891E019
:1000D000215080409040E1F700C00000C1E0ECCF2B
:1000E000CC2351F385B1826085B92FE986E891E090
:1000F000215080409040E1F700C00000C0E0DCCF1C
:04010000F894FFCFA1
:00000001FF
