S0110000536F6674426C696E6B2E7372656387
S11300000C9434000C943E000C943E000C943E007E
S11300100C943E000C943E000C943E000C943E0064
S11300200C943E000C943E000C943E000C943E0054
S11300300C943E000C943E000C943E000C943E0044
S11300400C943E000C943E000C943E000C943E0034
S11300500C943E000C943E000C943E000C943E0024
S11300600C943E000C943E0011241FBECFEFD4E04C
S1130070DEBFCDBF0E9440000C9458000C940000D9
S11300808FEF87B98FEF88B92FEF89E698E1215078
S113009080409040E1F700C0000018B82FEF89E6D7
S11300A098E1215080409040E1F700C00000EACF81
S10700B0F894FFCFEE
S9030000FC
