S0110000536F6674426C696E6B2E7372656387
S11300000C9434000C943E000C943E000C943E007E
S11300100C943E000C943E000C943E000C943E0064
S11300200C943E000C943E000C943E000C943E0054
S11300300C943E000C943E000C943E000C943E0044
S11300400C943E000C943E000C943E000C943E0034
S11300500C943E000C943E000C943E000C943E0024
S11300600C943E000C943E0011241FBECFEFD4E04C
S1130070DEBFCDBF0E9440000C945B000C940000D6
S113008082E084B985B18D7F85B92FE38DE093E05B
S1130090215080409040E1F700C0000085B18260AB
S11300A085B92FE38DE093E0215080409040E1F743
S10D00B000C00000E7CFF894FFCF72
S9030000FC
