:100000000C9434000C943E000C943E000C943E0082
:100010000C943E000C943E000C943E000C943E0068
:100020000C943E000C943E000C943E000C943E0058
:100030000C943E000C943E000C943E000C943E0048
:100040000C943E000C943E000C943E000C943E0038
:100050000C943E000C943E000C943E000C943E0028
:100060000C943E000C943E0011241FBECFEFD4E050
:10007000DEBFCDBF0E9440000C945B000C940000DA
:1000800080E287B988B18F7D88B92FE38DE093E056
:10009000215080409040E1F700C0000088B18062AC
:1000A00088B92FE38DE093E0215080409040E1F744
:0A00B00000C00000E7CFF894FFCF76
:00000001FF
