:100000000C9434000C943E000C943E000C943E0082
:100010000C943E000C943E000C943E000C943E0068
:100020000C943E000C943E000C943E000C943E0058
:100030000C943E000C943E000C943E000C943E0048
:100040000C943E000C943E000C943E000C943E0038
:100050000C943E000C943E000C943E000C943E0028
:100060000C943E000C943E0011241FBECFEFD4E050
:10007000DEBFCDBF0E9440000C945C000C940000D9
:1000800084B1826084B98AB18E7F8AB981E08BB9EC
:1000900085B18D7F85B989B1282F217030E080FD31
:1000A00004C085B1826085B9F6CF2130310599F75A
:0C00B00085B18D7F85B9EFCFF894FFCFAC
:00000001FF
